:020000040800F2
:100000000000082035350008A5340008A734000892
:10001000A9340008AB340008AD340008000000002B
:10002000000000000000000000000000AF340008E5
:10003000B134000800000000B3340008B5340008F3
:1000400085350008853500088535000885350008A8
:100050008535000885350008853500088535000898
:100060008535000885350008853500088535000888
:100070008535000885350008B93400088535000845
:100080008535000885350008853500088535000868
:100090008535000885350008853500088535000858
:1000A0008535000885350008853500088535000848
:1000B0008535000885350008853500088535000838
:1000C0008535000885350008853500088535000828
:1000D000853500088535000885350008C5340008D9
:1000E0008535000885350008853500088535000808
:1000F00085350008853500088535000885350008F8
:1001000085350008853500088535000885350008E7
:1001100085350008853500088535000885350008D7
:1001200085350008D134000885350008853500087C
:1001300085350008853500088535000885350008B7
:1001400085350008853500088535000885350008A7
:100150008535000885350008853500088535000897
:100160008535000885350008853500088535000887
:100170008535000885350008DD34000800000000E2
:100180008535000885350008853500088535000867
:100190008535000885350008853500088535000857
:1001A0008535000885350008853500088535000847
:1001B0008535000885350008853500088535000837
:1001C00085350008853500080000000085350008E9
:1001D0008535000885350008853500088535000817
:1001E0008535000885350008853500088535000807
:0801F000853500088535000883
:1002000010B5054C237833B9044B13B10448AFF350
:1002100000800123237010BD70000020000000004A
:10022000343E000808B5034B1BB103490348AFF344
:10023000008008BD0000000074000020343E00086B
:10024000034613F8012B002AFBD1181A0138704716
:1002500001F0FF01102A2BDB10F0070F08D010F877
:10026000013B013A8B422DD010F0070F42B3F6D17B
:10027000F0B441EA012141EA014122F007047FF094
:1002800000070023F0E80256083C85EA010586EAEB
:10029000010685FA47F5A3FA87F586FA47F6A5FA27
:1002A00087F68EB9EED1F0BC01F0FF0102F0070233
:1002B00032B110F8013B013A83EA010313B1F8D1DE
:1002C0000020704701387047002D06BF35460338BF
:1002D000073815F0010F07D1013015F4807F02BFF8
:1002E000013015F4C03F0130F0BC0138704700BF49
:1002F00053B94AB9002908BF00281CBF4FF0FF318D
:100300004FF0FF3000F07AB9ADF1080C6DE904CE82
:1003100000F006F8DDF804E0DDE9022304B07047E0
:100320002DE9F0478C460D460446089E002B51D11E
:100330008A4217466DD9B2FA82FEBEF1000F0BD089
:10034000CEF1200C01FA0EF520FA0CFC02FA0EF7A1
:100350004CEA050C00FA0EF44FEA174A250CBCFBD8
:10036000FAF81FFA87F90AFB18CC45EA0C4508FB96
:1003700009F3AB420AD9ED1908F1FF3280F023816D
:10038000AB4240F22081A8F102083D44ED1AA4B22C
:10039000B5FBFAF00AFB105544EA054400FB09F9E5
:1003A000A14509D9E41900F1FF3380F00A81A14584
:1003B00040F2078102383C44A4EB090440EA0840BB
:1003C0000021002E61D024FA0EF400233460736003
:1003D000BDE8F0878B4207D9002E54D0002186E873
:1003E00021000846BDE8F087B3FA83F1002940F008
:1003F0008E80AB4202D3824200F2FA80841A65EB0F
:1004000003050120AC46002E3FD086E81010BDE861
:10041000F08712B90127B7FBF2F7B7FA87FEBEF1F2
:10042000000F34D1EB1B3A0C1FFA87FC0121B3FB00
:10043000F2F8250C02FB183345EA03450CFB08F3E0
:10044000AB4207D9ED1908F1FF3002D2AB4200F2FE
:10045000D1808046ED1AA3B2B5FBF2F002FB105535
:1004600043EA05440CFB00FCA44507D9E41900F15C
:10047000FF3302D2A44500F2B8801846A4EB0C0466
:1004800040EA08409DE731463046BDE8F087CEF1AE
:10049000200405FA0EF307FA0EF720FA04F83A0CD6
:1004A00025FA04F448EA0308B4FBF2F14FEA1845D0
:1004B00002FB11441FFA87FC45EA044501FB0CF3DB
:1004C000AB4200FA0EF409D9ED1901F1FF3080F0CA
:1004D0008A80AB4240F2878002393D44EB1A1FFA12
:1004E00088F5B3FBF2F002FB103345EA034500FB4D
:1004F0000CF3AB4207D9ED1900F1FF386FD2AB42D4
:100500006DD902383D44EB1A40EA01418FE7C1F151
:10051000200722FA07F88B4005FA01F448EA0303A2
:1005200020FA07FE4FEA134CFD404EEA040EB5FBDD
:10053000FCF94FEA1E440CFB19551FFA83F844EAF4
:10054000054509FB08F4AC4202FA01F200FA01FA8F
:1005500008D9ED1809F1FF3043D2AC4241D9A9F1D5
:1005600002091D442D1B1FFA8EFEB5FBFCF00CFB8F
:1005700010554EEA054400FB08F8A04507D9E418D9
:1005800000F1FF3529D2A04527D902381C4440EAA2
:100590000940A4EB0804A0FB02894C45C6464D4621
:1005A00015D312D056B1BAEB0E0364EB050404FA6E
:1005B00007F7CB401F43CC40376074600021BDE893
:1005C000F0871846F8E69046E0E6C245EAD2B8EB76
:1005D000020E69EB03050138E4E72846D7E74046F9
:1005E00091E78146BEE7014678E702383C4445E79B
:1005F000084608E7A8F102083D442BE7704700BF12
:1006000038B50E4B05460E4A18784FF47A73B3FB93
:10061000F0F31068B0FBF3F000F09CF8044658B912
:100620000F2D09D8024629464FF0FF3000F04EF852
:10063000044B20461D6038BD012038BD000000205D
:10064000080000200400002008B5032000F02CF86A
:100650000020FFF7D5FF02F0BDFD002008BD00001F
:10066000034A044B11681B780B441360704700BFAA
:100670009858022000000020014B1868704700BF06
:100680009858022038B50446FFF7F6FF0546631C6C
:100690001EBF044B1B78E418FFF7EEFF401B84429B
:1006A000FAD838BD00000020074A0002D36800F4E1
:1006B000E06023F4E0631B041B0C43F0BF6343F4CE
:1006C00000330343D360704700ED00E0194B30B5B1
:1006D000DC68C4F30224C4F10703251D042B28BFE2
:1006E0000423062D4FF001058CBF033C002405FABE
:1006F00003F3002803F1FF3301EA030101FA04F1D7
:1007000005FA04F404F1FF3402EA040242EA0102A9
:100710004FEA021205DA00F00F00D2B2064B1A546B
:1007200030BD00F16040D2B200F5614080F8002396
:1007300030BD00BF00ED00E014ED00E042090123F0
:1007400000F01F0003FA00F0014B43F8220070474D
:1007500000E100E00138B0F1807F0AD2064BF021C1
:10076000064A5860002082F82310072298601A6019
:1007700070470120704700BF10E000E000ED00E08E
:1007800010B5846BA36BA06CC3B103681968A26B2E
:1007900012F001020BD1090309D5DB68E16B03EB11
:1007A000C10100F033FDA36B013BA3630CE01A68A9
:1007B000120309D41B690122E16BF0E703681A6890
:1007C000110311D5626CDA60A26B236C9A420AD1D4
:1007D0002368DA6842F00102DA601B689B0702D5E1
:1007E000012384F8353010BD1A681203ECD4E16B94
:1007F000626C02EB81021A61236CD6E738B50446BD
:1008000000283DD090F835300BB902F0FBFC22688F
:100810000223E56884F835301A4B11680B40616893
:10082000136010296369106843EA010343EA050372
:10083000256943EA0503A56843EA0503A56943EA78
:100840000503256A43EA0503656A43EA0503A56AC9
:1008500043EA0503E56A43EA0503256B43EA05031A
:1008600043EA0003136001D1E3699361D368002078
:1008700043F01E03D3600123E06484F8353038BDB3
:10088000012038BD07F0E0FFF7B5044690F83400CA
:10089000164601284FF002002DD025684FF0010EBA
:1008A00084F83500B3F5803F286884F834E040F4DC
:1008B0008040DFF88CC02860286820F002002860A3
:1008C000286841EA0001A06C29601C49C0F83CC0BE
:1008D000C1644FF000010165A16321640DD205F1EF
:1008E000280100F05BF922680020136843F001033F
:1008F000136084F8340003B0F0BDC0F844C0C4F8FD
:1009000038E06264E363E36BB3F5803F0FD2A36B1F
:1009100005F12801023BA363A36B2364E36BE26B45
:1009200006EB83030092324600F084FADBE7E36BC8
:100930005B08E363A36B5B00A363E4E7BD09000806
:100940008107000838B590F834300446012B31D0C7
:10095000194B1A684FF4FA53B2FBF3F34FF47A725F
:100960005A43012380F83430022380F8353003687D
:10097000196821F00101196012F1FF3215D2E26C01
:10098000032542F02002E2641A68A06C22F480423F
:100990001A6000F040F9E36CE364012384F8353019
:1009A000002384F83430284638BD1D6815F0010551
:1009B000E2D1E9E70225F6E708000020806B08B5E0
:1009C000836C5B6D022B06D0012380F83530C36C3D
:1009D00043F04003C36402F023FB08BD70470000EE
:1009E00038B5036804461D6969070CD504225A61AD
:1009F000C36C43F00203C36480F835201C4B806C49
:100A0000036500F04BF9AA070ED523680222A06CFB
:100A10005A61E36C43F00103E364042384F8353046
:100A2000134B036500F03AF9EB0605D52368102255
:100A300020465A6102F0F2FA280705D523680822F9
:100A400020465A61FFF7CAFFE90710D523681A68E4
:100A5000920703D5DA6822F01E02DA60DA682046CF
:100A600022F00102DA6001225A6102F0C7FA38BDB1
:100A7000BD09000803681821DAB223F47F73103A25
:100A800023F00303B2FBF1F20449032A895C88BF17
:100A90000433C1658365806D704700BF4C3E00081C
:100AA00070B50446FFF7E8FD0546002C71D0002321
:100AB000226884F83430022384F83530136823F038
:100AC0000103136021680B68D8073CD40B68324DD2
:100AD00062681D40A368A0691343E268134322695A
:100AE000134362691343E26903431343226A1343C6
:100AF000626A042A43EA050301BF266BE56A3543AF
:100B00002B43042A0B604B6923F0070343EA0203DB
:100B10000BD1A26AE56A13433DB1F8B9012A2DD081
:100B200001D3022A01D1EA012BD44B612046FFF701
:100B3000A1FFE26D3F2393408360002001236065A5
:100B400084F8353070BDFFF797FD401B0528B9D9F3
:100B500020230320636584F8350070BDB0F5005F85
:100B600013D1032AE1D801A050F822F0830B00082A
:100B7000270B0008830B00087D0B0008B5F1C07F30
:100B8000D3D1402301206365E5E7022AF9D9032A7E
:100B9000C8E7012070BD00BF3F8010E070B590F83D
:100BA0003440012C35D00124866D002580F8344076
:100BB00090F83540012C4FF0020428D180F83540E0
:100BC00004684565256825F4802525606360836891
:100BD000402B19D1A260E160C26D3F239340B36006
:100BE000236843F016032360636943F08003636165
:100BF000036C1BB1236843F00803236023680020C3
:100C000043F00103236070BDA160E260E4E780F877
:100C10003450022070BD70B50446856DFFF72CFD81
:100C2000064694F83530022B06D0802301206365F8
:100C3000002384F8343070BD23681A6822F016024D
:100C40001A605A6922F080025A61226C0AB9A26CB9
:100C50001AB11A6822F008021A601A6822F001021A
:100C60001A602368186810F0010009D1E26D3F2373
:100C70009340AB60012384F8340084F8353070BDB4
:100C8000FFF7FAFC801B0528EBD9202303206365BE
:100C9000002384F8350084F8343070BD90F8353086
:100CA000022B03D08023436501207047026805238F
:100CB00080F835300020136823F00103136070477B
:100CC0000023F7B501930822594B0446856D1F6830
:100CD000C36D2E689A4016420CD001680868400720
:100CE00008D5086820F004000860AA60626D42F030
:100CF0000102626501229A40164208D021684969C2
:100D0000090604D5AA60626D42F0020262650422FF
:100D10009A40164208D021680968880704D5AA605D
:100D2000626D42F00402626510229A40164210D0B1
:100D30002368196809070CD5AA601A68500335D5CD
:100D40001B68190301D4236C00E0A36C0BB120468F
:100D50009847E16D20228A40164238D023681868EF
:100D6000C60634D5AA6094F83520052A1A6825D11C
:100D700022F016021A605A6922F080025A61226C2F
:100D80000AB9A26C1AB11A6822F008021A603F234D
:100D90008B40AB60002384F83430012384F8353075
:100DA000236D0BB12046984703B0F0BD1A68D205F9
:100DB000C9D41A6822F008021A60C4E7500328D583
:100DC0001B68190332D4636C0BB120469847636DDE
:100DD000002BE9D0636DDA0719D50523226884F862
:100DE0003530136823F0010313604FF41653B7FB3B
:100DF000F3F7019B01339F42019302D31368DB0792
:100E0000F7D4002384F83430012384F83530E36CC0
:100E1000C7E71A6812F4807208D1196821F010012E
:100E20001960012384F8342084F83530E36BCBE774
:100E30000800002070B58668802E04D14FF48073BE
:100E40004365012070BD90F83440012C00F0D4813E
:100E50000124002580F8344090F83540012C4FF0F3
:100E6000020440F0C78180F83540402E0468456593
:100E7000256845F4802525602361049B63603FD18C
:100E8000A260E160B04B9C4242D918339C423AD0F8
:100E9000AE4A944239D01832944214BF4FF00062E7
:100EA0004FF40012AA499C42CA6040F0B38010225D
:100EB0009C42CA6040F0E6800822A5499C42CA6074
:100EC00040F0188104229C42CA6040F05F810123F7
:100ED0009F4AD360236843F016032360636943F09D
:100EE00080036361036C0BB9836C1BB1236843F00F
:100EF000080323602368002043F00103236070BDD2
:100F0000A160E260BEE72022CCE74FF40062C9E7AF
:100F1000904B9C422AD903F556739C4221D08E4AAD
:100F2000944220D01832944214BF4FF000624FF424
:100F3000001287499C428A607AD110229C428A60C2
:100F400040F0AE80082282499C428A6040F0E080F6
:100F500004229C428A6040F0268101237C4A9360EF
:100F6000B8E72022E5E74FF40062E2E77B4B9C42C2
:100F700028D918339C4220D0794A94421FD0183285
:100F8000944214BF4FF000624FF4001275499C4226
:100F9000CA605BD110229C42CA6040F08F80082258
:100FA00070499C42CA6040F0C18004229C42CA60E1
:100FB00040F0068101236B4A8BE72022E6E74FF4DD
:100FC0000062E3E7684B9C421FD0684A94421ED0FF
:100FD0001832944214BF4FF000624FF4001261497E
:100FE0009C428A6040D110229C428A6074D10822BF
:100FF0005C499C428A6040F0BB8004229C428A602B
:1010000040F0EB800123574AA9E72022E7E74FF49D
:101010000062E4E74D4A944207D01832944214BF6C
:101020004FF080624FF4801242E74FF480623FE756
:10103000494A944207D01832944214BF4FF080625C
:101040004FF480127AE74FF4806277E7444A944283
:1010500007D01832944214BF4FF080624FF48012D0
:1010600099E74FF4806296E7404A944207D01832DD
:10107000944214BF4FF080624FF48012B4E74FF4F3
:101080008062B1E7314A944207D01832944214BFCB
:101090004FF000724FF400220FE74FF400720CE79C
:1010A0002D4A944207D01832944214BF4FF0007278
:1010B0004FF4002247E74FF4007244E7284A944275
:1010C00007D01832944214BF4FF000724FF4002240
:1010D00066E74FF4007263E7244A944207D018325F
:1010E000944214BF4FF000724FF4002280E74FF497
:1010F00000727DE7154A944207D01832944214BF1B
:101100004FF080724FF48022DDE64FF48072DAE611
:10111000114A944207D01832944214BF4FF08072A3
:101120004FF4802215E74FF4807212E70C4A944284
:1011300007D01832944214BF4FF080724FF48022CF
:1011400034E74FF4807231E758640240886402400B
:1011500000640240B86002402864024058600240C7
:101160008860024000600240106002402860024037
:10117000224A944207D01832944214BF4FF0807232
:101180004FF480223AE74FF4807237E71C4B9C42C1
:1011900007D018339C4214BF4FF480034FF48033C0
:1011A00096E6402394E6174B9C4207D018339C42A6
:1011B00014BF4FF480034FF48033CFE64023CDE6D5
:1011C000114B9C4207D018339C4214BF4FF480034C
:1011D0004FF48033EFE64023EDE6084B9C4207D006
:1011E00018339C4214BF4FF480034FF480330AE756
:1011F000402308E780F83450022070BD2860024088
:10120000886402402864024088600240036812B982
:10121000D960002070471961FBE700002DE9F04F0D
:101220000B6885B0DFF8C081019300236C4ADFF8BA
:10123000BC914FF0010E019C0EFA03FE0EEA04066B
:10124000B64540F0B3804C6824F01007022F16D149
:101250004FEAD30A03F0070B4FF00F0C00EB8A0A9A
:101260004FEA8B0BDAF820500CFA0BFC25EA0C0C39
:101270000D6905FA0BF545EA0C05CAF820504FEA4E
:10128000430A0325D0F800B004F0030C05FA0AF570
:10129000013F0CFA0AFCED43012F0BEA050B4CEA67
:1012A0000B0CC0F800C011D8876807EA050BCF689F
:1012B00007FA0AFC4CEA0B078760476827EA0E0E1C
:1012C000C4F300179F4047EA0E074760C7683D40D8
:1012D0008F6807FA0AF73D43C560E50066D5D8F880
:1012E000445023F0030703F0030E4FF00F0C45F4B6
:1012F000804507F180474FEA8E0EC8F8445007F545
:101300009C37D8F8445005F480450395039D0CFAAA
:101310000EF5D7F808A02AEA050C324DA8424CD0A9
:1013200005F58065A8424AD005F58065A84248D0F9
:1013300005F58065A84246D005F58065A84244D0F1
:10134000484544D005F50065A84242D005F58065C2
:10135000A84240D005F58065A8423ED005F58065DD
:10136000A84214BF0A25092505FA0EF514F4803F9A
:1013700045EA0C05BD606FEA060715680CBF3D40E5
:10138000354314F4003F156055680CBF3D403543AC
:1013900014F4801F556095680CBF3D403543A4028E
:1013A0009560D56854BF3D403543D5600133102B5F
:1013B0007FF43FAF05B0BDE8F08F0025D4E70125ED
:1013C000D2E70225D0E70325CEE70425CCE70525A3
:1013D000CAE70625C8E70725C6E70825C4E700BF12
:1013E000003C01400000024000380240001402406E
:1013F0000369194214BF0120002070470AB18161BE
:1014000070470904FBE703689A69910701D5002238
:101410009A629A69D20703D49A6942F001029A61EA
:10142000704730B5039CC1F3090105682343640D7F
:10143000686804F48064194344F07F7441EA02410F
:1014400044F4583444F47F7444F0030420EA040460
:101450002143696030BD2DE9F041069F044688466E
:1014600016461D462268936938EA03030CBF012320
:101470000023B34202D00020BDE8F0816B1CF2D003
:1014800055B92023032084F84130002384F84230EA
:1014900084F84030BDE8F081FFF7EEF8C01B8542CC
:1014A000E0D2EEE7036870B5044698690D4616462B
:1014B00010F0100012D170BD691C10D04DB920235E
:1014C000032084F84130002384F8423084F840300F
:1014D00070BDFFF7D1F8801B8542F0D3236899696E
:1014E0008A06E9D5102220252046DA61DD61FFF762
:1014F0008AFF22680120536823F0FF7323F48B33A3
:1015000023F4FF7323F00103536004236364002377
:1015100084F8415084F8403084F8423070BD70B592
:1015200004460D46164623689B695B070ED4324677
:1015300029462046FFF7B6FFF0B923689A6991065D
:101540001CD59A69520703D5228D0AB1002070BDBF
:101550002021D9615A6822F0FF7222F48B3222F4E2
:10156000FF7222F001025A600023636484F8403065
:1015700084F8411084F84230012070BD5DB9636C7D
:10158000032043F020036364202384F841300023C8
:1015900084F8403070BDFFF76FF8801B8542C2D2DF
:1015A000EDE770B504460D46164623689B699B0718
:1015B00001D5002070BD324629462046FFF772FF54
:1015C000B0B96A1CF1D06DB9636C032043F02003FD
:1015D0006364202384F84130002384F8423084F887
:1015E000403070BDFFF748F8801B8542DDD2EBE745
:1015F000012070BD70B504460D46164623689B69F0
:101600009B0601D5002070BD324629462046FFF7D3
:1016100049FFA0B96DB9636C032043F020036364F4
:10162000202384F84130002384F8423084F840308D
:1016300070BDFFF721F8801B8542DFD2EBE7012068
:1016400070BD10B5044600284AD090F8413003F030
:10165000FF021BB980F8402001F08EFE2423E168D0
:1016600084F84130012923681A6822F001021A60C7
:10167000626822F070621A619A6822F400429A60ED
:10168000A26824D142F400429A605A68002061693D
:1016900042F0007242F400425A60DA6822F40042DA
:1016A000DA6022690A43A16942EA0122216ADA600A
:1016B000E2690A431A601A6842F001021A602023A4
:1016C000606484F84130206384F8420010BD42F425
:1016D000044202299A60D8D14FF400625A60D4E7DC
:1016E000012010BD2DE9F743984690F8413004469B
:1016F0000E46202B914640F0898090F84030012B17
:1017000000F08480012780F84070FEF7B5FF1923B0
:10171000054600903A464FF400412046FFF79BFEF5
:10172000002848D12123C4F82490606384F8413014
:10173000102384F842306064A4F82A80638D9BB241
:10174000FF2B334B25D9FF22009322854FF0807366
:1017500031462046FFF765FE638D2A460A992046EA
:101760009BB2F3B9FFF746FFF0B923682021D96196
:101770005A6822F0FF7222F48B3222F4FF7222F0B8
:1017800001025A6084F8411084F8400084F8420055
:101790000EE0628D009392B222854FF00073D2B2B8
:1017A000D6E7FFF7FEFE40B1636C042B03D10120A6
:1017B00003B0BDE8F0830320FAE7636A2268591C8E
:1017C00061621B789362228D638D013A013B92B274
:1017D0009BB222856385002ABED1638D9BB2002B0C
:1017E000BAD0009580210A9B2046FFF734FE0028DE
:1017F000E1D1638D9BB2FF2B03D9FF22009022859C
:10180000A4E7628D009092B22285C6E70220CFE75E
:10181000002000802DE9F743984690F841300446B7
:101820000E46202B914640F0898090F84030012BE5
:1018300000F08480012780F84070FEF71DFF192317
:10184000054600903A464FF400412046FFF703FE5C
:10185000002848D12223C4F82490606384F84130E2
:10186000102384F842306064A4F82A80638D9BB210
:10187000FF2B334B25D9FF22009322854FF0807335
:1018800031462046FFF7CDFD638D2A460A99204652
:101890009BB2F3B9FFF7AEFEF0B923682021D961FE
:1018A0005A6822F0FF7222F48B3222F4FF7222F087
:1018B00001025A6084F8411084F8400084F8420024
:1018C0000EE0628D009392B222854FF00073D2B287
:1018D000D6E7FFF724FE40B1636C042B03D101204F
:1018E00003B0BDE8F0830320FAE7636A5A1C626222
:1018F0002268526A1A70228D638D013A013B92B2BE
:101900009BB222856385002ABED1638D9BB2002BDA
:10191000BAD0009580210A9B2046FFF79CFD002845
:10192000E1D1638D9BB2FF2B03D9FF22009022856A
:10193000A4E7628D009092B22285C6E70220CFE72D
:101940000024008090F84120D2B2202A10B51DD189
:1019500090F84030012B19D0242380F841300368DF
:101960001C6824F001041C601C6824F480541C6072
:101970001C6821431960196841F0010119600023B6
:1019800080F8412080F84030184610BD022010BD7C
:1019900010B590F84140E4B2202C1CD190F84030B2
:1019A000012B18D0242380F8413003681A6822F0F4
:1019B00001021A601A6822F4706242EA0121196079
:1019C0001A6842F001021A60002380F8414080F852
:1019D0004030184610BD022010BD0000024A1368B6
:1019E00043F480731360704700700040194B37B5A3
:1019F0001A6C194C42F080521A641B6C03F080532D
:101A00000193019B236843F480332360FEF734FE87
:101A100005466368DA030CD5236843F4003323607A
:101A2000FEF72AFE0C4C054663689B030AD500208E
:101A300006E0FEF721FE401BB0F57A7FE9D90320CE
:101A400003B030BDFEF718FE401BB0F57A7FEBD92E
:101A5000F5E700BF00380240007000402DE9F34177
:101A6000044618B9012002B0BDE8F0810368D80728
:101A700010D4236899075ED42368190700F1A38066
:101A800023685A0700F1C480A269002A40F02E8121
:101A90000020E8E7934B9A6802F00C02042A07D072
:101AA0009A6802F00C02082A0AD15B685A0207D52C
:101AB0008C4B1B689B03DCD56368002BD9D1D1E725
:101AC0006368884DB3F5803F11D12B6843F48033B0
:101AD0002B60FEF7D1FD834D06462B689F03C8D4CB
:101AE000FEF7CAFD801B6428F7D90320BBE79BB92A
:101AF0002B6823F480332B602B6823F480232B6026
:101B0000FEF7BAFD06462B689803B2D5FEF7B4FD82
:101B1000801B6428F7D9E8E7B3F5A02F2B6803D121
:101B200043F480232B60D0E723F480332B602B68B1
:101B300023F48023CCE76B4B9A6812F00C0F07D08C
:101B40009A6802F00C02082A11D15B6859020ED47F
:101B5000644B1A68920702D5E268012A82D11A689A
:101B6000216922F0F80242EAC1021A6084E7E368C0
:101B70005C4DBBB12B6843F001032B60FEF77CFD8D
:101B800006462B689F0707D52B68226923F0F803C8
:101B900043EAC2032B606FE7FEF76EFD801B02284D
:101BA000EFD9A2E72B6823F001032B60FEF764FD59
:101BB00006462B6898077FF55FAFFEF75DFD801B3B
:101BC0000228F6D991E76369464D83B16B6F43F004
:101BD00001036B67FEF750FD06466B6F9B073FF5F1
:101BE0004FAFFEF749FD801B0228F6D97DE76B6FEA
:101BF00023F001036B67FEF73FFD06466B6F9F07FF
:101C00007FF53EAFFEF738FD801B0228F6D96CE762
:101C1000344B1A6CD00027D41A6C012642F0805243
:101C20001A641B6C03F080530193019B2E4D2B68AB
:101C3000D9051BD5A3682B4D012B27D12B6F43F062
:101C400001032B6741F28835FEF716FD254F8046CC
:101C50003B6F9B073FD5002E3FF416AF214A136C14
:101C600023F0805313640FE70026DFE72B6843F46B
:101C700080732B60FEF700FD07462B68DA05D9D488
:101C8000FEF7FAFCC01B6428F7D92EE7ABB92B6F1F
:101C900041F2883823F001032B672B6F23F00403F4
:101CA0002B67FEF7E9FC07462B6F9807D3D5FEF7A5
:101CB000E3FCC01B4045F7D917E7052B2B6F03D179
:101CC00043F004032B67B9E723F001032B672B6F65
:101CD00023F00403B5E7FEF7CFFCA0EB0800A84211
:101CE000B6D902E70038024000700040244DAB68CE
:101CF00003F00C03082B3FF4B5AE2B68022A23F047
:101D000080732B602FD1FEF7B7FC06462B68990134
:101D100023D4226AE3691343626A43EA8213E26AC4
:101D200043EA0263226B43EA0273A26A144C52082C
:101D3000013A43EA02436B602B6843F080732B60E7
:101D4000FEF79AFC054623689A013FF5A1AEFEF71F
:101D500093FC401B0228F6D9C7E6FEF78DFC801BDA
:101D60000228D3D9C1E6FEF787FC04462B689B0105
:101D70007FF58EAEFEF780FC001B0228F6D9B4E694
:101D80000038024070B5204C88B00D461646236BD3
:101D9000E0B943F0010303A92363236B059003F02B
:101DA0000103079019480193019B4FF4807303933B
:101DB0000223049303230693FFF730FAA16821F06E
:101DC000EC6131432943A16008B070BD43F00403C6
:101DD00003A90F482363236B03F004030293029BC0
:101DE0004FF4007303930223049303230693002309
:101DF00005930793FFF712FAA36845EAC60123F09B
:101E000078450D43A560DFE700380240000002403E
:101E100000080240134908B58B6803F00C03042B3B
:101E200003D0082B03D0104808BD104808BD4A68ED
:101E30004B68496802F03F0213F48003C1F3881134
:101E40001ABF0A4800230848A1FB0001FEF750FA18
:101E5000044B5B68C3F3014301335B00B0FBF3F059
:101E600008BD00BF003802400024F40000127A00D0
:101E70002DE9F0410D46044610B90120BDE8F0817E
:101E8000464A136803F00F038B4228D321688F075B
:101E900030D4C80743D4414A136803F00F039D426E
:101EA00067D32268510770D4130707D53C4A2169CC
:101EB000936823F4604343EAC1039360FFF7AAFFEA
:101EC000374B384A9B68C3F30313D35CD840364B77
:101ED00018600020FEF794FB0020BDE8F081136835
:101EE00023F00F030B431360136803F00F039942B1
:101EF000C3D1CBE711F0040F294B03D09A6842F409
:101F0000E0529A600E0703D59A6842F460429A60E4
:101F10009A68A06822F0F00202439A60B9E761680B
:101F20001F4B01291A681CD112F4003FA5D09A68F2
:101F300041F288381A4E22F003020A439A60FEF7F3
:101F40009BFB0746B368626803F00C03B3EB820F98
:101F5000A1D0FEF791FBC01B4045F3D90320BDE89B
:101F6000F081022902D112F0007FDFE712F0020FA8
:101F7000DCE7136823F00F032B431360136803F0AF
:101F80000F039D427FF479AF8BE70549E0688B68CA
:101F900023F4E05303438B6086E700BF003C02401C
:101FA00000380240F340000808000020044B054AB6
:101FB0009B68C3F38223D35C034A1068D840704700
:101FC000003802400341000808000020044B054A85
:101FD0009B68C3F34233D35C034A1068D840704710
:101FE0000038024003410008080000202DE9F743B3
:101FF0000268044612F001060BD0BA4B996821F42E
:1020000000019960466B99683143B6FA86F6760905
:10201000996012F4002512D0B249E56BD1F88C30EA
:10202000B5F5801F23F4401308BF012643EA0503DA
:1020300016BFB5FA85F500256D09C1F88C30D702B9
:1020400010D5A848216CD0F88C30B1F5800F23F45E
:10205000400343EA0103C0F88C3000F0A981002955
:1020600008BF012512F0807F18BF0126900631D5E8
:102070009C4B9D4F1A6C42F080521A641B6C03F00B
:1020800080530193019B3B6843F480733B60FEF7F0
:10209000F3FA80463B68D90540F18C81914F3B6F44
:1020A00013F4407340F09181236B03F44072B2F556
:1020B000407F8C4A40F0AF81916823F0704021F45A
:1020C000F81120F4407001439160C3F30B03116FCA
:1020D0000B4313672368DF060CD5824AD2F88C10B5
:1020E00021F08071C2F88C10D2F88C10A06B0143E3
:1020F000C2F88C10580408D57A49606ED1F8902047
:1021000022F440320243C1F89020190408D57549E1
:10211000A06ED1F8902022F440220243C1F8902012
:10212000DA0308D56F49E06ED1F8902022F440120E
:102130000243C1F890209F0308D56A49206FD1F867
:10214000902022F440020243C1F89020580608D59E
:102150006449606CD1F8902022F003020243C1F878
:102160009020190608D55F49A06CD1F8902022F084
:102170000C020243C1F89020DA0508D55949E06CF9
:10218000D1F8902022F030020243C1F890209F0540
:1021900008D55449206DD1F8902022F0C0020243A6
:1021A000C1F89020580508D54E49606DD1F89020AF
:1021B00022F440720243C1F89020190508D549491C
:1021C000A06DD1F8902022F440620243C1F8902023
:1021D000DA0408D54349E06DD1F8902022F440524A
:1021E0000243C1F890209F0408D53E49206ED1F8E3
:1021F000902022F440420243C1F89020580208D5B2
:102200003849A06FD1F8902022F080620243C1F8D3
:10221000902099020CD53348E16FD0F89020B1F1AD
:10222000006F22F0006208BF01250A43C0F8902029
:1022300013F0080F18BF01255A0308D52949606F0C
:10224000D1F8902022F040720243C1F890201F0282
:1022500009D52449D4F88000D1F8902022F080528A
:102260000243C1F89020580109D51E49D4F88400D2
:10227000D1F8902022F000520243C1F890201901B9
:1022800009D51849D4F88800D1F88C2022F00072C2
:102290000243C1F88C20DA0009D51249D4F88C0029
:1022A000D1F88C2022F080620243C1F88C20012EEC
:1022B00000F0B580B3F1007F00F0B180012D75D141
:1022C000084D2B6823F080532B60FEF7D5F90646A6
:1022D0002B689F0000F1278121680E0306D5E36B70
:1022E00043B103E00038024000700040CD021DD52C
:1022F000236CDBB9934AD2F88830D2F8880003F413
:10230000403300F0E0400343606943EA8013A06972
:1023100043EA0063C2F88830D2F88C30A06A23F414
:10232000F853013843EA0023C2F88C30880215D5EF
:10233000E36FB3F1006F11D1824AD2F88830D2F83E
:10234000880003F0706300F0E0400343606943EAF3
:102350008013206A43EA0043C2F888300A0719D57F
:102360007849D1F88820D1F8883002F0706203F4FF
:1023700040331343626943EA8213E26943EA02731A
:10238000C1F88830D1F88C30E26A23F4403313432B
:10239000C1F88C306B4C236843F080532360FEF708
:1023A0006BF9054623689B0040F1C480002009E0DA
:1023B000012657E6FEF760F9A0EB080064287FF6D7
:1023C00069AE032003B0BDE8F083226B02F44072D3
:1023D00093423FF469AE3B6F3A6F23F4407342F48B
:1023E00080323A673A6F22F480323A673B673B6F3C
:1023F000DA077FF559AEFEF73FF941F2883980469A
:102400003B6F9B073FF550AEFEF736F9A0EB080097
:102410004845F5D9D5E7916821F4F81154E6494EBD
:10242000336823F080633360FEF726F9074633688C
:102430001B0172D42268D70712D5636B83B9D6F813
:102440008430D6F8841003F4403301F070610B43FC
:10245000616843EA8113A16843EA0173C6F88430D6
:10246000160303D5E36BB3F5801F05D0D0021ED54C
:10247000236CB3F5800F1AD13249D1F88430D1F8EA
:10248000840003F4403300F0E0400343606843EA13
:102490008013E06843EA0063C1F88430D1F88C000F
:1024A000636A20F01F00013B0343C1F88C30D10167
:1024B00011D52449D1F88430D1F8840003F0706339
:1024C00000F0E0400343606843EA8013206943EA78
:1024D0000043C1F8843092010DD5236962681B0462
:1024E00043EA8213E26843EA0263A26843EA0273A2
:1024F000144AC2F88430134E336843F0806333606B
:10250000FEF7BAF8074633681B013FF5D7AEFEF772
:10251000B3F8C01B6428F6D953E7FEF7ADF8C01B2B
:10252000642884D94DE7FEF7A7F8801B64287FF65E
:10253000CFAE46E7FEF7A0F8401B64287FF632AF27
:102540003FE700BF0038024003681A6822F4907227
:102550001A609A6822F001029A60202380F86A309B
:1025600070472DE9F041069D04460F4616469846F1
:102570002168CA6937EA02030CBF01220022B24275
:1025800002D00020BDE8F0816B1CF2D09DB9236819
:1025900003201A6822F4D0721A609A6822F00102AD
:1025A0009A60202384F8693084F86A30002384F824
:1025B0006830BDE8F081FEF75FF8A0EB08008542C7
:1025C000D6D8E4E72DE9F3411F4690F86930044678
:1025D0000D46202B90464CD1002948D0002A46D0E9
:1025E00090F86830012B44D0012380F86830002334
:1025F000C366212380F86930FEF73EF80646A4F84A
:102600005080A4F85280B4F8522092B262B9009778
:10261000334640212046FFF7A4FF98B9202384F8D1
:10262000680084F869300EE0B4F852300022009758
:102630008021013B20469BB2A4F852303346FFF77D
:1026400090FF18B1032002B0BDE8F081A3682268B2
:10265000B3F5805F07D123692BB935F8023BC3F38B
:1026600008039362CFE72B7801359362CBE7012013
:10267000E9E70220E7E77047704790F86A300268A0
:10268000222B10B52AD18368B0F85C10B3F5805FB7
:10269000436D1DD10469DCB9526A114023F8021B55
:1026A0004365B0F85A40013CA4B2A0F85A406CB956
:1026B00003681A6822F490721A609A6822F0010284
:1026C0009A60202380F86A30FFF7D6FF002010BD03
:1026D000526A5C1C114044651970E2E7936902205C
:1026E00043F00803936110BD704700000368DA6986
:1026F000196870B5160704469D6807D1950663D51D
:102700008E0661D5BDE87040FFF7B7BF15F0010038
:1027100002D111F4907F57D0D50707D5CE0505D546
:1027200001251D62E56E45F00105E566950706D5B4
:1027300028B102251D62E56E45F00405E5665607E1
:1027400006D528B104251D62E56E45F00205E56653
:10275000150707D58E0600D420B108201862E36E55
:102760000343E366E36E002B6AD0950604D5880622
:1027700002D52046FFF781FFE36E2046190704D4F7
:1027800023689D6815F040051AD0FFF7DDFE236829
:102790009A68520610D59A68606E22F040029A60DC
:1027A00050B1284B0365FEF779FA002848D0606ED7
:1027B000BDE87040036D18472046FFF795FF70BDD8
:1027C000FFF792FFE56670BD16062BD50D0629D5DD
:1027D00094F86920212A33D1B4F8522092B242B938
:1027E0001A6822F080021A601A6842F040021A60E9
:1027F00070BDA268B2F5805FE26C0ED1216961B94B
:1028000032F8021BC1F308019962E264B4F8523055
:10281000013B9BB2A4F8523070BD511CE1641278A8
:102820009A62F3E750060BD54A0609D51A68204686
:1028300022F040021A60202384F86930FFF71BFF62
:1028400070BD00BF4928000808B5806B0023A0F8C0
:102850005A30A0F85230FFF747FF08BD38B504469C
:102860000568C3692169A26828680A4361690A4347
:1028700093491A430140206A0A43E1682A606A6862
:1028800022F440520A436A60A269A968024321F413
:1028900030610A43AA608B4A954219D102F59432FD
:1028A0008949D2F8902002F00302B3F5004F8A5C08
:1028B00040F0B380082A00F2AD80DFE812F0260075
:1028C0007B00E900AB00F500AB00AB00AB00FB0008
:1028D0007E4A954207D102F5FA327D49D2F890201E
:1028E00002F00C02E1E77B4A95422BD102F5F83267
:1028F000D2F8902002F03002102A00F0D28016D8D0
:10290000DAB9B3F5004F40F09F80FFF74FFB6168E5
:102910004A0802EB4003B3FBF1F39BB2002023F023
:102920000F02C3F3420321681343CB6038BD202A52
:1029300000F0AB80302A00F0BA80B3F5004F69D0C8
:10294000012038BD644A95420ED102F5F632D2F824
:10295000902002F0C002402A00F0A380D0D9802A43
:1029600000F09380C02AE6E75C4A954210D102F558
:10297000F432D2F8902002F44072B2F5807F00F079
:102980009080BDD9B2F5007F7FD0B2F5407FD2E70D
:10299000534A954217D102F59232D2F8902002F4B0
:1029A0004062B2F5806F7CD007D8002AC5D1B3F55C
:1029B000004F54D1FFF70AFBA9E7B2F5006F64D0CE
:1029C000B2F5406FB7E7474A95420FD102F5E032C2
:1029D000D2F8902002F44052B2F5805F61D08FD9D6
:1029E000B2F5005F51D0B2F5405FA4E73E4A954290
:1029F000A3D102F5DE32D2F8902002F44042B2F5C3
:102A0000804F4ED07FF67CAFB2F5004F3DD0B2F58F
:102A1000404F90E70120002381E7082A90D801A3C6
:102A200053F822F0492A00085F2A0008652A0008A6
:102A3000412900087B2A0008412900084129000893
:102A400041290008812A0008FFF7B0FA636800EB0B
:102A50005300B0FBF3F080B2E860002038BDFFF710
:102A6000B5FAF3E76268530803F5740303F51053EE
:102A7000B3FBF2F39BB2EB60EFE7FFF7CBF9E5E7CF
:102A80006268530803F50043F2E7B3F5004FE9D15C
:102A90006068430803F1F47303F59043B3FBF0F36C
:102AA0003BE7B3F5004FE8D1FFF7B4F92FE7B3F5F3
:102AB000004FE5D16068430803F58033EEE700BFBF
:102AC000F369FFEF00100140543E0008004400404D
:102AD000583E000800480040004C004000500040B4
:102AE0000014014000780040007C0040436ADA078F
:102AF00010B506D50168846A4A6822F40032224380
:102B00004A609C0706D50168C46A4A6822F480328C
:102B100022434A60590706D50168046B4A6822F4CB
:102B2000802222434A601A0706D50168446B4A682E
:102B300022F4004222434A60DC0606D50168846B19
:102B40008A6822F4805222438A60990606D5016879
:102B5000C46B8A6822F4005222438A605A0610D558
:102B60000168046C4A68B4F5801F22F4801242EABE
:102B700004024A6005D14A68446C22F4C002224330
:102B80004A601B0606D50268816C536823F4002353
:102B90000B43536010BD37B500250446C566FDF7ED
:102BA0006BFD226803461268120709D42023002017
:102BB00084F8693084F8680084F86A3003B030BD66
:102BC0006FF07E424FF40011204600922A46FFF734
:102BD000C8FC0028EAD00320F0E710B5044660B333
:102BE00090F8693003F0FF021BB980F8682000F00C
:102BF000F9FB22682423204684F86930136823F007
:102C000001031360FFF72AFE012816D0636A13B18F
:102C10002046FFF76BFF236820465A6822F4904253
:102C20005A609A6822F02A029A601A6842F00102F9
:102C3000BDE810401A60FFF7AEBF012010BD0000D4
:102C400000B5B3B00A460146684600F0E1FC002832
:102C500009DD6846FDF7F4FA6FF07F4382B26946FA
:102C60000248FFF7AFFC33B05DF804FBFC580220CC
:102C70000FB407B504A951F8040B0191FFF7E0FF69
:102C800003B05DF804EB04B07047000010B5B8B0B5
:102C900034220021022407A800F09AFC142200210B
:102CA00002A800F095FC0021902214A800F090FCEE
:102CB000FEF794FE254B07A81A6C42F080521A6466
:102CC0001B6C03F080530093009B214B1A6842F465
:102CD00040421A601B680D9403F440431194019321
:102CE000019B032307934FF4A023089301230A9326
:102CF00010230B934FF480030E9304230F93D223DE
:102D0000109309231293FEF7A9FEFEF76FFE0F231F
:102D10000394002402934FF4A053062102A80593C4
:102D20004FF4805304940693FFF7A2F84FF48243C4
:102D300014A8279414932D94FFF758F9224621469E
:102D40002046FFF71FF838B010BD00BF0038024022
:102D5000007000402DE9F0438FB0984DFDF774FCF2
:102D60000024FFF793FF1422002109A800F030FC93
:102D70002B6B002244F2810143F0100390484FF086
:102D8000010803262B634FF002092B6B8D4F03F0D4
:102D900010030293029B2B6B43F004032B632B6BFA
:102DA00003F004030393039B2B6B43F080032B631B
:102DB0002B6B03F080030493049B2B6B43F0010304
:102DC0002B632B6B03F001030593059B2B6B43F0E7
:102DD00002032B632B6B03F002030693069B2B6B02
:102DE00043F040032B632B6B03F040030793079BD7
:102DF0002B6B43F008032B632B6B03F00803089342
:102E0000089BFEF7FBFA002242216F48FEF7F6FA14
:102E10004FF4005309A96D4809936D4B0B940A9325
:102E2000FEF7FCF944F2810309A965480993CDF83E
:102E300028800B940C94FEF7F1F9812309A96248CC
:102E400009930A940B94FEF7E9F9422309A95E4815
:102E50000993CDF828800B940C94FEF7DFF94FF41A
:102E6000807309A95B4809930C96CDF828900B94C0
:102E70000D94FEF7D3F92B6B574843F480032B6373
:102E80002B6B03F480030193019B2B6B43F4001322
:102E90002B632B6B866203F40013446184610993F6
:102EA000099B4E4BC461C46204634D4D4D4E80E896
:102EB0001800802383604FF40073C3604FF4806375
:102EC00003614FF40033036204234362FDF7E8FD1E
:102ED000224621460E20FDF7F9FB0E20FDF72EFCC1
:102EE000214622463920FDF7F1FB3920FDF726FC6B
:102EF0003D4A4FF4E1332846AC60EC602C61AC6194
:102F0000EC612C626C6285E80C000C236B61FFF7AE
:102F100064FE364B3046F46034617461B4617462AF
:102F2000B462F462346386E818002023B360082397
:102F30003362FDF763FC2E4B38462E49BC60C7F860
:102F40000C803C617C61BC61FC613C6287E80A00EA
:102F5000FEF777FB21463846FEF7F4FC214638465B
:102F6000FEF716FD31463846234E00F0F7F80A20EA
:102F7000FDF788FB154F484600F0B0F80A20FDF732
:102F800081FB4FF400513846FEF732FAA0B1002C15
:102F9000F7D04FF41631304600F00CF94FF4FA60D8
:102FA000FDF770FB40F6B8334FF430423146284607
:102FB0000024FFF707FBE4E70124E2E700380240C2
:102FC000000402406C590220001802400008024030
:102FD00000001110000002409C58022010640240C2
:102FE000FC580220785A022000480040000005509A
:102FF0009A666010005400408C00002008B5054817
:1030000001224FF48041FEF7F9F90348BDE808407A
:10301000FFF72EBE00040240823E00087047000009
:103020000148FFF725BE00BF653E0008704700005D
:103030001FB564238DF80C00074803AA00930223F0
:103040008DF80D1060210068FEF74CFBB0FA80F09F
:10305000400905B05DF804FBD05A02207FB50D4C45
:1030600004AA64250E4602F8040D01230095602190
:103070002068FEF737FB58B90095012332466021DE
:103080002068FEF7C7FBB0FA80F0400904B070BDBD
:103090000120FBE7D05A0220F7B507460025ABB266
:1030A00017F8134007EB4302FF2C567801D1FF2E8F
:1030B00012D00DF107012046FFF7D0FF3146204620
:1030C0000135FFF7B5FF0A20FDF7DCFA0DF1070126
:1030D0002046FFF7C3FFE2E703B0F0BD10B504469A
:1030E0001248FFF7D9FF1248FFF7D6FF1148FFF744
:1030F000D3FF0A20FDF7C6FA0121FF20FFF798FF52
:103100000A20FDF7BFFA00211520FFF791FF012CDF
:1031100009D0022C05D034B90748BDE81040FFF7AC
:10312000BBBF0648F9E70648F7E700BF613F000864
:10313000DF4000084F3F00089B3E0008FD3E0008AE
:10314000AD3E000808B5044B1868FDF7FBFB1E20D8
:10315000BDE80840FDF796BAC85A0220124B00227B
:1031600010B51860114C124B204619600121FEF772
:1031700045F96420FDF786FA012220461146FEF744
:103180003DF96420FDF77EFA0121FF20FFF750FF93
:1031900080211220FFF74CFF6420FDF773FABDE891
:1031A0001040FFF7CFBF00BFD05A022000180240E6
:1031B000C85A022070B504460D46FFF7C3FF044805
:1031C0002B46224602210068BDE87040FDF75CBB3B
:1031D000C85A02200A4B82B01A6C42F080521A641C
:1031E0001A6C02F080520092009A5A6C42F48042AB
:1031F0005A645B6C03F480430193019B02B07047F7
:1032000000380240F0B58DB007461422002107A80F
:1032100000F0DEF93A684F4B9A4240F099804E4BED
:103220000D24022607A95A6B00254C4842F00102E2
:103230005A635A6B02F001020192019A1A6B42F032
:1032400010021A631A6B02F010020292029A1A6BB1
:1032500042F001021A631A6B02F001020392039A10
:103260001A6B42F004021A631A6B02F00402049211
:10327000049A1A6B42F008021A631A6B02F00802F1
:103280000592059A1A6B42F040021A631B6B08966E
:1032900003F040030693069B702307930B94FDF7FE
:1032A000BDFF502307A92E4807930B940896099554
:1032B0000A95FDF7B3FF4FF4707307A929480793E8
:1032C0000B94089609950A95FDF7A8FF082307A90E
:1032D000254807930B94089609950A95FDF79EFFDC
:1032E0004FF40073214807A90B940793204C0896CC
:1032F00009950A95FDF792FF4FF000731D4A20468D
:10330000A560E560E562256384E80C004FF4806306
:1033100023614FF4805363614FF48043A3614FF402
:103320008073E3614FF44033236204236362032319
:10333000A362FDF7B5FB08B1FFF778FE00224E202F
:10334000BC641146A763FDF7C1F94E20FDF7F6F9FD
:103350000DB0F0BD000005500038024000100240E2
:103360000000024000080240000C02400018024029
:10337000B85902202864024010B588B004461422CF
:10338000002103A800F024F92268134B9A4221D1AE
:10339000124C03A91248236B43F002032363236BEF
:1033A00003F002030193019B4FF440730393122334
:1033B0000493012305930323069304230793FDF746
:1033C0002DFF236C43F400132364236C03F40013D8
:1033D0000293029B08B010BD005400400038024028
:1033E0000004024070B588B005461422002103A8ED
:1033F00000F0EEF82A68274B9A4248D103F5F833DB
:103400000326254803A91A6C244C42F480221A642E
:103410001A6C02F480220192019A1A6B42F008029F
:103420001A631B6B069603F008030293029B4FF48A
:10343000407303930223049307230793FDF7EEFEE3
:103440004FF48062164B4FF0006C4FF0400E22613B
:103450004FF440322046A6622262042284E80850DB
:1034600000236262E3606361A361E361E36223635B
:10347000FDF716FB08B1FFF7D9FD002227202C66C7
:103480001146A563FDF722F92720FDF757F908B08B
:1034900070BD00BF00480040000C0240185A0220D6
:1034A000586002407047FEE7FEE7FEE7FEE7704720
:1034B00070477047FDF7D4B80148FDF701BC00BF65
:1034C000185A02200148FFF711B900BFFC5802202A
:1034D0000148FDF7F5BB00BFB85902200148FDF7D0
:1034E0007FBA00BF785A02200F490020D1F88830F7
:1034F00043F47003C1F888300C4B1A6842F00102A3
:103500001A6098601A6822F0847222F480321A607D
:10351000074A5A601A6822F480221A60D8604FF075
:1035200000638B60704700BF00ED00E00038024090
:1035300010300024DFF834D0002103E00C4B5B583E
:10354000435004310B480C4B42189A42F6D30B4AB5
:1035500002E0002342F8043B094B9A42F9D3FFF7FB
:10356000C3FF00F011F8FFF7F5FB704700000820DB
:103570005041000800000020700000207000002072
:10358000D85A0220FEE7000070B50D4E0D4CA41B6A
:10359000A4100025A54209D10B4E0C4C00F04AFCAA
:1035A000A41BA4100025A54205D170BD56F82530F6
:1035B00098470135EEE756F8253098470135F2E790
:1035C0004841000848410008484100084C410008B3
:1035D00002440346934200D1704703F8011BF9E708
:1035E00010B59AB04FF40274009104916FF000414D
:1035F000029105914FF6FF71ADF80E106946ADF8D6
:103600000C4000F06BF8009B00221A701AB010BD3D
:1036100013460A46014602480068FFF7E1BF00BFB3
:103620000C0000202DE9F0478E689E4282460C4631
:103630009146984635D88A8912F4906F31D0256822
:1036400009696F1A6569022305EB450595FBF3F5DA
:1036500008F101033B449D4238BF1D46530531D557
:10366000294600F039FB064650B90C23CAF8003051
:10367000A38943F04003A3814FF0FF30BDE8F087FA
:103680003A46216900F0B4FAA38923F4906343F029
:103690008003A381266165613E44ED1B2660A56021
:1036A0004646464528BF464632464946206800F011
:1036B000AAFAA3689B1BA36023681E44266000200F
:1036C000BDE8F0872A4600F065FB06460028E1D1F8
:1036D0002169504600F0B2FAC7E700002DE9F04F2B
:1036E0009DB0804603938B891C060D4616460FD568
:1036F0000B696BB9402100F0EFFA2860286128B906
:103700000C23C8F800304FF0FF30C5E040236B6158
:103710000023099320238DF8293030238DF82A3097
:103720004FF0010B37463C4614F8013B002B3CD1CF
:10373000B7EB060A0BD05346324629464046FFF700
:1037400071FF013000F0A380099B534409933B783B
:10375000002B00F09C8000234FF0FF32049307936E
:10376000059206938DF853301A930522217850481C
:10377000FCF76EFD671C049BD8B9D90644BF202214
:103780008DF853201A0744BF2B228DF8532022783E
:103790002A2A16D0079A00210A20274601343B78AE
:1037A000303B092B51D9C9B111E0252BC0D0274698
:1037B000B9E73F4A801A0BFA00F0184304903C46E0
:1037C000D3E7039A111D12680391002A01DB0792C7
:1037D00004E0524243F00203079204933B782E2BFD
:1037E0000ED17B782A2B07F1010132D1039B1A1DE0
:1037F0001B680392002BB8BF4FF0FF3302370593CD
:103800002C4C397803222046FCF722FD38B14023A6
:10381000001B03FA00F0049B03430493013739783B
:1038200025488DF8281006227E1CFCF711FD002883
:1038300035D0224BFBB9039B073323F00703083332
:103840000393099B4B4409936CE700FB023201216F
:10385000A3E70023059318460A240F4601313A785E
:10386000303A092A03D9002BCAD00590C8E704FBD7
:1038700000200123F1E703AB00932A46104B04A973
:103880004046AFF30080B0F1FF3F8146D9D1AB890C
:103890005B063FF538AF09981DB0BDE8F08F03AB6C
:1038A00000932A46064B04A9404600F081F8EAE757
:1038B0000B410008114100081541000800000000FC
:1038C000253600082DE9F04791461F468A680B69A6
:1038D000DDF820809342B8BF1346C9F8003091F854
:1038E000432006460C4612B10133C9F80030236864
:1038F000990642BFD9F800300233C9F80030256874
:1039000015F0060507D104F1190AE368D9F800207B
:103910009B1A9D4229DB94F843302268003318BF7C
:10392000012392062ED404F1430239463046C047A3
:10393000013021D02368E568D9F8002003F00603A0
:10394000042B08BFAD1AA36822690CBF25EAE575F0
:1039500000259342C4BF9B1AED184FF000091A349A
:103960004D451BD10020BDE8F08701235246394662
:103970003046C047013003D14FF0FF30BDE8F0873B
:103980000135C2E7E1185A1C302081F84300224477
:1039900094F8451082F843100233C4E7012322460D
:1039A00039463046C0470130E6D009F10109D7E772
:1039B0002DE9F04317460A7E85B06E2A98460646E2
:1039C0000C460C9B01F1430E00F0BC801AD8632A10
:1039D0002ED00AD8002A00F0C880582A00F08A8029
:1039E00004F1420584F842202AE0642A01D0692AC1
:1039F000F6D121681A6811F0800F23D0111D1960CB
:103A0000136827E0732A00F0B48008D86F2A2AD000
:103A1000702AE5D10A6842F020020A6003E0752AA4
:103A200021D0782ADCD1782284F845206E4964E0E0
:103A30001A6801F14205111D1960136884F84230BB
:103A40000123A3E011F0400F02F104011960D7D067
:103A5000B2F90030002B03DA2D225B4284F84320B8
:103A600062490A2217E02068196810F0800F03D01D
:103A7000081D18600B6806E010F0400F01F104000B
:103A80001860F7D00B8859496F2A14BF0A22082200
:103A9000002084F843006568A560002DC0F29C807A
:103AA000206820F004002060002B3FD1002D40F062
:103AB00095807546082A0BD12368DA0708D5236953
:103AC00062689A42DEBF302305F8013C05F1FF35FC
:103AD000AEEB05032361CDF800803B4603AA2146E7
:103AE0003046FFF7EFFE013055D14FF0FF3005B003
:103AF000BDE8F08381F845203C492268186812F03F
:103B0000800F00F104051D6001D0036802E0550636
:103B1000FBD50388D00744BF42F0200222601BB9C6
:103B2000226822F0200222601022B1E77546B3FB22
:103B3000F2F002FB1033CB5C05F8013D0346002890
:103B4000F5D1B7E708681A68496910F0800F04D00A
:103B5000101D18601368196007E010F0400F02F1A3
:103B6000040018601368F6D019800023236175469D
:103B7000B1E71A68111D19601568626800212846AE
:103B8000FCF766FB08B1401B60606368236100239B
:103B900084F843309FE723692A4639463046C047B8
:103BA0000130A2D023689B0707D5002504F119092D
:103BB000E368039A9B1A9D4205DBE068039B9842E9
:103BC000B8BF184693E701234A4639463046C047F6
:103BD00001308AD00135EBE7002BA7D10B7884F8B0
:103BE000423004F1420565E72D4100081C41000800
:103BF00010B5431E0A44914200D110BD11F8014B8B
:103C000003F8014FF7E7884210B501EB020303D830
:103C1000421E99420CD110BD9842F9D28118D21A95
:103C2000D34200D110BD13F8014D01F8014DF7E763
:103C300011F8014B02F8014FEBE7000038B50546DB
:103C4000002945D051F8043C0C1F002BB8BFE418E4
:103C500000F0D6F81F4A1368104633B96360146049
:103C60002846BDE8384000F0CCB8A3420CD9216802
:103C70006218934204BF1A685B68636004BF5218FD
:103C800022600460ECE713465A680AB1A242FAD9EE
:103C900019685818A0420BD1206801445818824274
:103CA0001960DDD1106852685A6001441960D7E785
:103CB00002D90C232B60D3E7206821188A4204BF65
:103CC00011685268626004BF091821605C60C7E730
:103CD00038BD00BF8C58022070B5CD1C25F00305FF
:103CE00008350C2D38BF0C25002D064601DBA942F6
:103CF00003D90C233360002070BD00F081F8234A03
:103D00001468214691B9224C23681BB9304600F053
:103D100067F820602946304600F062F8431C26D13F
:103D20000C233360304600F06CF8E4E70B685B1B53
:103D30001AD40B2B0FD90B60CD50CC18304600F0A5
:103D400060F804F10B00231D20F00700C31A1BD0FC
:103D50005A42E25070BD8C420DBF63684B6863608D
:103D6000136018BF0C46E9E70C464968CAE7C41C53
:103D700024F00304A04205D0211A304600F030F8A8
:103D80000130CDD02560D9E770BD00BF8C5802202E
:103D900090580220F8B5074614460E4621B9114640
:103DA000BDE8F840FFF798BF22B9FFF747FF254667
:103DB0002846F8BD00F026F884420FD9214638463F
:103DC000FFF78AFF05460028F2D031462246FFF76A
:103DD0000FFF31463846FFF731FFE9E73546E7E7A1
:103DE00038B5064C002305460846236000F014F859
:103DF000431C02D1236803B12B6038BDD45A022082
:103E00007047704751F8040C0028A0F10400BCBFB3
:103E10000B58C01870470000044B1968024609B9D6
:103E200003491960186802441A60704794580220C8
:103E3000D85A0220F8B500BFF8BC08BC9E467047AF
:0C3E4000F8B500BFF8BC08BC9E467047F7
:103E4C0000061016000610160104020800101010CF
:103E5C0004101010021010100844434D4920484122
:103E6C004C5F44434D495F4572726F7243616C6C99
:103E7C006261636B0A0044434D49204672616D6573
:103E8C004576656E7443616C6C6261636B0A00E02D
:103E9C0014E177E51FD703DA10E000FF010408FFF7
:103EAC00FFFF0112401711184319001A4B32094F2A
:103EBC00CA50A85A236D00391235DA221A37C32397
:103ECC000034C0361A068807C00D870E414C00FF1F
:103EDC0000E004C064C14B8635508951C8529653DA
:103EEC00005400550057005A505B3C5C00E000FF4A
:103EFC00FFFF011101120017111875323619011A42
:103F0C0097030F37404FBB509C5A576D803D343947
:103F1C00023588220A374034A006020DB70E01FF85
:103F2C0000E004C0C8C196863D50895190522C5374
:103F3C00005400558857005AA05B785C00D304E00D
:103F4C0000FFFFE014E177E51FD703DA10E000FF74
:103F5C00010408FFFFFF002CFF2EDFFF013C321194
:103F6C00000902042813E514482C0C33783A333B2F
:103F7C00FB3E0043111610399235DA221A37C3234F
:103F8C000034C0361A068807C00D870E414C004815
:103F9C00005B0042034A8121992440253826825C2B
:103FAC00006300617062807C05208028306C006D9D
:103FBC00806E007002719473C1124017111843196E
:103FCC00001A4B320937C04F6050A86D003D38467F
:103FDC003F4F600C3CFF00E57FF9C04124E01476B4
:103FEC00FF33A0422043184C0087D5883FD703D914
:103FFC0010D382C808C9807C007D007C037D487D7D
:10400C00487C087D207D107D0E9000910E911A91B8
:10401C0031915A91699175917E9188918F91969178
:10402C00A391AF91C491D791E891209200930693FC
:10403C00E3930593059300930493009300930093EB
:10404C000093009300930096009708971997029796
:10405C000C972497309728972697029798978097D4
:10406C00009700C3EDA400A800C511C651BF80C7BE
:10407C0010B666B8A5B764B97CB3AFB497B5FFB04A
:10408C00C5B194B20FC45CC064C14B8C00863D506A
:10409C000051C852965300540055005AC85B965CA8
:1040AC0000D300C3ED7F00DA00E51FE167E000DD1F
:1040BC007F05001240D304C016C1128C00863D50FF
:1040CC0000512C52245300540055005A2C5B245C94
:1040DC0000FFFFFF000500DA10D703DF0033803C40
:1040EC0040E1770000FFFF0000000000000000012D
:1040FC000203040607080900000000010203042360
:10410C002D302B2000686C4C0065666745464700D7
:10411C0030313233343536373839414243444546F1
:10412C000030313233343536373839616263646587
:04413C006600000019
:08414000E0C1FF7F0100000057
:044148002502000844
:04414C000102000864
:1041500001000000100000000024F4001000002006
:10416000000000000000000000000000000000004F
:10417000000000000000000000000000000000003F
:10418000000000000000000000000000000000002F
:10419000000000000000000000000000000000001F
:1041A000000000000000000000000000000000000F
:1041B00000000000000000000000000000000000FF
:040000050800353585
:00000001FF
